:020000040800F2
:1000000060090020C9010008252300081514000814
:10001000C51F000817060008513600080000000040
:10002000000000000000000000000000112800088F
:10003000ED0C000800000000AD230008992900081D
:10004000E3010008E3010008E3010008E301000800
:10005000E3010008E3010008E3010008E3010008F0
:10006000E3010008E3010008E3010008E3010008E0
:10007000E3010008E3010008E3010008E3010008D0
:10008000E3010008E3010008E3010008E3010008C0
:10009000E3010008E3010008E3010008E3010008B0
:1000A000E3010008812C0008E3010008E3010008D7
:1000B000D52D0008F92E0008E3010008E30100082F
:1000C000E3010008B114000819140008E301000856
:1000D000E301000825350008AD350008E3010008FC
:1000E000E3010008E3010008E301000800F002F862
:1000F00000F05AF80AA090E8000C82448344AAF168
:100100000107DA4501D100F04FF8AFF2090EBAE865
:100110000F0013F0010F18BFFB1A43F0010318473B
:100120001C4F00003C4F00000A444FF0000C10F838
:10013000013B13F0070408BF10F8014B1D1108BF65
:1001400010F8015B641E05D010F8016B641E01F805
:10015000016BF9D113F0080F1EBF10F8014BAD1C55
:100160000C1B09D16D1E58BF01F801CBFAD505E073
:1001700014F8016B01F8016B6D1EF9D59142D6D3CD
:10018000704700000023002400250026103A28BFF5
:1001900078C1FBD8520728BF30C148BF0B607047F9
:1001A0001FB51FBD10B510BD00F052F81146FFF786
:1001B000F7FF03F0FBFD00F070F803B4FFF7F2FF68
:1001C00003BC03F0A1FA0000094880470948004732
:1001D000FEE7FEE7FEE7FEE7FEE7FEE7FEE7FEE7F7
:1001E000FEE7FEE704480549054A064B7047000054
:1001F0009D290008ED000008600300206009002030
:100200006005002060050020704710B5431C02E027
:1002100010F8011B71B18107FAD14FF0013202C809
:100220008C1A8C4314EAC211F9D0C01A0A0603D002
:10023000C01E10BDC01A10BD0A0401D0801E10BD22
:100240000902FCD0401E10BD7047704770477047D0
:10025000754600F02BF8AE4605006946534620F07F
:100260000700854618B020B5FFF7BCFFBDE8204069
:100270004FF000064FF000074FF000084FF0000B62
:1002800021F00701AC46ACE8C009ACE8C009ACE815
:10029000C009ACE8C0098D46704710B50446AFF3FD
:1002A00000802046BDE81040FFF787BF0048704738
:1002B0000003002000B585B02E4800F0C9F80121E8
:1002C000480202F0B1F80020009001208DF80400EF
:1002D0008DF805004FF46020029000200390062066
:1002E0008DF810006946234800F0F4F84FF4004000
:1002F00002F05EF80723062202211E4800F012F9E0
:100300000723052203211B4800F00CF907230422D0
:100310001146184800F006F9072303220521154865
:1003200000F000F9072302220821124800F0FAF831
:100330000723012209210F4800F0F4F801210D489C
:1003400000F07BF801210B4800F06CF8094800F040
:1003500045F900BF074800F0B3F80028FAD1054876
:1003600000F04CF900BF034800F0A0F80028FAD1D3
:1003700005B000BD0024014000B58BB00121084646
:1003800002F022F80F4800F0EDFB0F4800900F48F4
:10039000019000200290062003900020049080200D
:1003A00005904000069080000790202008900002F1
:1003B000099000200A906946024800F079FC0BB0D1
:1003C00000BD0000080002404C2401402C02002027
:1003D00008B501210D2002F027F83C20ADF80000FF
:1003E00000208DF803006946084800F0FFFD012158
:1003F0000D2002F019F80320ADF8000000208DF860
:1004000003006946024800F0F1FD08BD0008014004
:10041000000C014010B5FFF7DBFFFFF7ADFFFFF762
:1004200049FF10BD21B1826842F00102826003E001
:10043000826822F001028260704721B1826842F432
:100440008072826003E0826822F48072826070476A
:1004500010B504461248844208D10121401501F02C
:10046000F3FF0021601501F0EFFF17E00D48844213
:1004700008D10121001501F0E7FF0021201501F04E
:10048000E3FF0BE00848844208D10121C80301F0D2
:10049000DBFF00214FF4004001F0D6FF10BD00004B
:1004A0000024014000280140003C0140014600209A
:1004B0008A6802F004020AB1012000E000207047BF
:1004C000014600208A6802F008020AB1012000E01B
:1004D0000020704730B502460020002350680F4CC2
:1004E00020400D790C6844EA052420435060906850
:1004F0000B4C2040D1E902542C434D7944EA450489
:1005000020439060D06A20F470000C7C641EE4B23A
:10051000234340EA0350D06230BD0000FFFEF0FFED
:10052000FDF7F1FFF0B504460D4600200021092D2E
:1005300011DDE068A5F10A0606EB4607072606FA74
:1005400007F18843A5F10A0606EB460603FA06F111
:100550000843E0600CE0206905EB4507072606FA32
:1005600007F1884305EB450603FA06F108432061CD
:10057000072A0FDA606B561E06EB86071F2606FA5F
:1005800007F18843561E06EB860605FA06F1084376
:10059000606322E00D2A0FDA206BD61F06EB860778
:1005A0001F2606FA07F18843D61F06EB860605FAD2
:1005B00006F10843206310E0E06AA2F10D0606EBA5
:1005C00086071F2606FA07F18843A2F10D0606EBFF
:1005D000860605FA06F10843E062F0BD816841F045
:1005E00008018160704721B1826842F4A0028260F4
:1005F00003E0826822F4A00282607047816841F0C3
:1006000004018160704710B501F098FA02F02CF8EF
:1006100001F0A8FA10BD00BFFEE7000070B5054666
:100620000C460B2D64D1082C5DD2DFE804F05C048D
:100630000D16242D3B49284603F092FB4FF48051C0
:100640005B4800F0B0FD52E0284603F089FB4FF410
:100650000051574800F0A7FD49E0284603F080FB11
:100660004FF48051524800F09EFD4FF40051504825
:1006700000F099FD3BE0284603F072FB4FF4804107
:100680004B4800F090FD32E0284603F069FB4FF440
:100690008041474800F087FD4FF48051444800F006
:1006A00082FD24E0284603F05BFB4FF48041404884
:1006B00000F079FD4FF400513D4800F074FD16E064
:1006C000284603F04DFB4FF48041394800F06BFDA4
:1006D0004FF40051364800F066FD4FF48051344825
:1006E00000F061FD03E0284603F03AFB00BF5EE046
:1006F0000C2D5CD1082C55D2DFE804F054040C1406
:1007000020293643284603F02BFB1021284800F00F
:100710004AFD4BE0284603F023FB2021244800F04B
:1007200042FD43E0284603F01BFB1021204800F067
:100730003AFD20211E4800F036FD37E0284603F040
:100740000FFB4FF400711A4800F02DFD2EE02846F3
:1007500003F006FB1021164800F025FD4FF4007150
:10076000134800F020FD21E0284603F0F9FA4FF489
:1007700000710F4800F017FD20210D4800F013FD17
:1007800014E0284603F0ECFA1021094800F00BFDB4
:100790004FF40071064800F006FD2021044800F0E7
:1007A00002FD03E0284603F0DBFA00BF00BF70BD86
:1007B000000C01402DE9F05FCA480068B0F5FA5F0F
:1007C00006DDC8480068A0F51C501038C54908600F
:1007D000C5480068B0F5FA5F06DDC3480068A0F5BB
:1007E0001C501038C0490860BE480068002818DD59
:1007F0000220BE498870BB48006803F066FE0646CA
:10080000BB4ABC4B03F0C8FE044603F031FEB749B7
:10081000C870B9480068B34909680844B649086017
:1008200023E0B048006800281BDA0120AF49887037
:10083000AC48006803F049FE0646AD4AAD4B03F0F4
:10084000ABFE81F00041044603F012FEA749C870D8
:10085000A9480068A349096849420844A6490860B4
:1008600003E00020A1498870C8709F4800680028F4
:1008700018DD02209D4908709B48006803F025FEA2
:1008800006469B4A9B4B03F087FE044603F0F0FDAF
:1008900096494870994800689349096808449749FF
:1008A000086023E09048006800281BDA01208F4987
:1008B00008708D48006803F008FE06468C4A8D4B90
:1008C00003F06AFE81F00041044603F0D1FD874940
:1008D00048708A4800688449096849420844874941
:1008E000086003E000208149087048708348006870
:1008F0000A21B0FBF1F0000A7C4908717F480068CA
:100900000A21B0FBF1F0794948717B4800680A215F
:10091000B0FBF1F0000A75498871774800680A2138
:10092000B0FBF1F07149C87175480078012876D1A3
:100930007448006803F0C9FD0646734A734B03F020
:100940002BFE804689466748006803F0BEFD0646D8
:100950006D4A6F4B03F020FE824642464B4603F041
:100960000FFB044603F0DAFA6A4908605D48006844
:10097000644908606848006803F0A7FD0646624ABB
:10098000624B03F009FE04460D465748006803F029
:100990009CFD06465C4A5E4B03F0FEFD8046224607
:1009A0002B4603F0EDFA824603F0B8FA5B49086083
:1009B0004D4800685849086059480078012835D1E9
:1009C0005848006804F006F80646494A494B03F0C7
:1009D0008BFB044603F0A2FA5249086052480078A3
:1009E00001280FD151494F48006804F0B1F84D4932
:1009F00008604F4801684B48006804F07FF9494996
:100A0000086010E048480078022809D14848016889
:100A10004448006804F00AF84249086003E05FE0D7
:100A200000204049086000203D4908704148007896
:100A3000012834D14048006803F0CCFF06462C4A18
:100A40002C4B03F051FB044603F068FA3A49086066
:100A50003A48007801280FD134493748006804F03B
:100A600077F835490860364801683348006804F073
:100A700045F9314908600FE030480078022808D174
:100A80002F4801682C48006803F0D0FF2A4908600D
:100A900002E00020284908600020264908701D480F
:100AA00001682548006800F037FA044604F020F891
:100AB00024490860194801681A48006800F0C2F922
:100AC000044604F015F82049086002F0F9FD1D48BD
:100AD000006801F047FF1C480068404201F028FF11
:100AE000BDE8F09F3000002034000020C801002045
:100AF000CDCCCCCCCCCC0440700000206C000020CD
:100B000001010020500000209A9999999999C93FB4
:100B10009999E93F48000020540000204C00002033
:100B20000C0100200401002002010020000080BF11
:100B3000100100200D010020080100200301002009
:100B400014010020400000204400002021B1026870
:100B500042F00102026004E002684FF6FE731A40A0
:100B60000260704701684FF6FE721140016000217B
:100B7000016041608160C1604B49884208D14A49A7
:100B80000839496841F00F01474A083A51608AE044
:100B900045491431884208D143490839496841F030
:100BA000F001414A083A51607DE03F4928318842CE
:100BB00008D13D490839496841F470613A4A083A18
:100BC000516070E038493C31884208D136490839D3
:100BD000496841F47041344A083A516063E032494F
:100BE0005031884208D130490839496841F47021B0
:100BF0002D4A083A516056E02B496431884208D1A9
:100C000029490839496841F47001274A083A516076
:100C100049E025497831884208D123490839496893
:100C200041F07061204A083A51603CE01F49884217
:100C300006D1011F096841F00F01021F116032E067
:100C40001A491431884208D11849091F096841F02E
:100C5000F001164A121F116025E01449283188421C
:100C600008D11249091F096841F470610F4A121F27
:100C7000116018E00D493C31884208D10B49091F29
:100C8000096841F47041094A121F11600BE00749DD
:100C90005031884207D10549091F096841F4702184
:100CA000024A121F11607047080002400804024007
:100CB00010B50022026847F6F0739A430C6A8B68FD
:100CC00023430C6923434C6923438C692343CC6938
:100CD00023434C6A23438C6A23431A430260CB6844
:100CE00043600B6883604B68C36010BD70470000B1
:100CF0000149C860704700000020024030B504463A
:100D000004254FF4302000F089F80546042D17D152
:100D10000C48006940F002000A4908610846446135
:100D2000006940F0400008614FF4302000F076F890
:100D300005460448006941F6FD7108400149086113
:100D4000284630BD0020024004200B49C96801F04C
:100D5000010109B101200EE00749C96801F0040151
:100D600009B1022007E00449C96801F0100109B186
:100D7000032000E00420704700200240034800697F
:100D800040F08000014908617047000000200240E7
:100D90000549096821F01001034A116011460968EC
:100DA00001431160704700000020024070B5044606
:100DB0000D460426F00200F031F80646042E11D14B
:100DC0000948006940F00100074908612580F002E8
:100DD00000F024F806460448006941F6FE71084018
:100DE00001490861304670BD0020024001460020E4
:100DF000034A106800F03800084310607047000094
:100E00000020024002480349486003484860704798
:100E10002301674500200240AB89EFCD00B50246B3
:100E20000423FFF791FF034603E0FFF78DFF03461E
:100E3000521E012B01D1002AF7D102B90523184611
:100E400000BD00002DE9F04F87B005460E46002496
:100E500000200490059006903146284603F044FF98
:100E6000044627480168204603F048FF25490860EA
:100E700008462146026801A802F068FC01A807C8DC
:100E800004AB07C3204A0699906803F0CFFD814662
:100E90001E480168484603F05BFE07461A4A05995A
:100EA000506803F0C3FD834615480168584603F0B7
:100EB0004FFE8146144A0499106803F0B7FD83463B
:100EC000214603F045FE8246494603F0AFFD8046C9
:100ED000394603F0ABFD0E490860094800680B492C
:100EE0000860074804600A4801680A48006803F07F
:100EF0009DFD084908600846006807B0BDE8F08F0E
:100F00008C00002094000020780000209000002039
:100F100088000020840000202DE9F04F87B00546AE
:100F20000E46002400200490059006903146284685
:100F300003F0DAFE044627480168204603F0DEFE8F
:100F40002549086008462146026801A802F0FEFB18
:100F500001A807C804AB07C3204A0699906803F0AC
:100F600065FD81461E480168484603F0F1FD0746CD
:100F70001A4A0599506803F059FD834615480168DF
:100F8000584603F0E5FD8146144A0499106803F0C1
:100F90004DFD8346214603F0DBFD8246494603F0C2
:100FA00045FD8046394603F041FD0E490860094879
:100FB00000680B490860074804600A4801680A484D
:100FC000006803F033FD084908600846006807B070
:100FD000BDE8F08FAC000020B40000209800002095
:100FE000B0000020A8000020A40000202DE9F0415E
:100FF000024600250026002000230024002791F847
:1010000003C00CF00F0591F803C00CF0100CBCF1FC
:10101000000F03D091F802C04CEA050591F800C01A
:10102000BCF1000F31D0146800202BE04FF0010C10
:101030000CFA00F3B1F800C00CEA03069E4220D17E
:1010400083004FF00F0C0CFA03F7BC4305FA03FCC6
:101050004CEA040491F803C0BCF1280F06D14FF00C
:10106000010C0CFA00FCC2F814C00AE091F803C0AD
:10107000BCF1480F05D14FF0010C0CFA00FCC2F88E
:1010800010C0401C0828D1D31460B1F800C0BCF1D6
:10109000FF0F34DD546800202EE000F1080C4FF003
:1010A000010808FA0CF3B1F800C00CEA03069E42EE
:1010B00021D183004FF00F0C0CFA03F7BC4305FA63
:1010C00003FC4CEA040491F803C0BCF1280F05D1DD
:1010D00000F1080C08FA0CF8C2F8148091F803C06B
:1010E000BCF1480F07D100F1080C4FF0010808FAD5
:1010F0000CF8C2F81080401C0828CED35460BDE81C
:10110000F0810000F0B50A460023002400210025EC
:1011100000F00046B6F1004F02D11D4EF16901E02A
:101120001B4E7168C0F3034583B200F44016B6F558
:10113000401F08D121F07061154E766826F0706668
:10114000134F7E6012E000F48016B6F5801F06D1C2
:10115000032606FA05F4A14341F0706106E0460D4E
:10116000360103FA06F6B14341F0706122B1460D33
:10117000360103FA06F6314300F00046B6F1004F9F
:1011800002D1034EF16101E0014E7160F0BD00003B
:10119000000001400246002093680B400BB1012083
:1011A00000E00020704741617047016170470AB15B
:1011B000016100E04161704738B5044600200090AD
:1011C00001F052F9012001F011FA1848006800F00E
:1011D000020000900098022825D11020FFF7D8FDCA
:1011E0000220FFF703FE002001F0F4F9002001F0D7
:1011F0000FFA4FF4806001F0FFF92146002001F062
:1012000019FA012001F010FA00BF392001F0BCF9F1
:101210000028FAD0022001F01BFA00BF01F0D2F939
:101220000828FBD101E000BFFEE738BD00100240F6
:1012300000B589B00121480201F0F6F80121C80289
:1012400001F0F2F80121042001F0EEF84FF4706093
:10125000ADF8040003208DF8060018208DF8070073
:1012600001A92D48FFF7C2FE40F6BF60ADF81C0093
:101270000020ADF81800ADF81E00ADF81A008DF88A
:10128000200006A9254802F0FBF87020ADF8080000
:101290000120ADF80A000020ADF80E000220ADF8E4
:1012A000100002A91D4801F061FF08211B4801F050
:1012B000A9FF02A9194801F0AFFF0821174801F062
:1012C000FDFF02A9154802F007F80821134802F0B3
:1012D00053F802A9114802F059F808210F4802F00A
:1012E00093F801210D4801F07FFE01210B4801F028
:1012F0008DFE0121094801F095FE0121074801F00A
:101300007FFE01221146054801F026FF0121034816
:1013100001F07CFE09B000BD00080140002C014036
:1013200000B589B00121480201F07EF80121C80210
:1013300001F07AF80121042001F076F84FF4706092
:10134000ADF8040003208DF8060018208DF8070082
:1013500001A92E48FFF74AFE41F61360ADF81C00C4
:101360003520ADF818000020ADF81E00ADF81A00C9
:101370008DF8200006A9264802F082F87020ADF80A
:1013800008000120ADF80A000020ADF80E00022090
:10139000ADF8100002A91E4801F0E8FE08211C4823
:1013A00001F030FF02A91A4801F036FF0821184861
:1013B00001F084FF02A9164801F08EFF08211448AD
:1013C00001F0DAFF02A9124801F0E0FF08211048FD
:1013D00002F01AF801210E4801F006FE01210C4826
:1013E00001F014FE01210A4801F01CFE0121084809
:1013F00001F006FE01221146054801F0ADFE012173
:10140000034801F003FE09B000BD000000080140E0
:10141000002C014000BFFEE708B5002000902248E4
:1014200000880090009800F48060B0F5806F08D1CB
:101430001D4800884FF6FF3108401B4908800020F6
:101440000090009800F40070B0F5007F08D11648B5
:1014500000884FF6FF3108401349088000200090B3
:10146000009800F48070B0F5807F08D10E480088A5
:101470004FF6FF6108400C4908800020009000985A
:1014800000F40060B0F5006F08D1074800884FF203
:10149000FF71084004490880002000900122D10318
:1014A0000248FFF784FE08BD14580040000C0140BC
:1014B00010B53C493C4800F0DEF818B139493A48CB
:1014C00000F080F8384800F0E9F8384A811A904274
:1014D0004AD01ADC364AA0EB0201904252D00DDC11
:1014E000102844D0B0F5806F44D0B0F1021F28D04E
:1014F000A0F50030403800284CD129E0012942D025
:10150000072946D03F2945D13EE02A4A881A914210
:101510003ED00BDC02291ED0042922D0B1F5803F39
:1015200035D06FF00110084478BB2FE02249084401
:1015300038B3B0F5E00F22D0A0F5E800803820BB2A
:101540001EE000201D490870174800F039F927E017
:1015500001F02CF924E0002018490870184908709F
:101560001EE001F057F91BE001F054F918E000F01B
:1015700031F915E00B490C4800F024F810E00FE0B9
:101580000EE00DE00CE00BE00AE003E008E007E00D
:1015900006E005E0044800F035F800F0C9FA00BFA5
:1015A00000BF10BD0004000100580040800006008C
:1015B00001000300040001008400F5FFF100002099
:1015C000F0000020002221F07F42D3438382704745
:1015D00010B504460449204600F030F801212046A9
:1015E00000F004F810BD00001000001021B10288C6
:1015F00042F00102028004E002884FF6FE731A40B6
:101600000280704710B504460B48844209D101217D
:10161000480500F0F9FE00214FF4001000F0F4FE40
:1016200008E00121880500F0EFFE00214FF4800062
:1016300000F0EAFE10BD0000005400400CB5024668
:10164000002000230193009300920B0F019321F0DF
:101650007F41019B1BB1009B1433009303E0090CF5
:10166000009B18330093009B1B680B400BB10120BB
:1016700000E000200CBD30B5024600200023948815
:1016800001F0E06504EA154321F07F41948A0C40A3
:1016900014B10BB1012000E0002030BD10B50146AF
:1016A0000020002300228B8A0A8B120443EA0204E2
:1016B00024F07F4010BD1AB183880B43838002E081
:1016C00083888B43838070472DE9F04385B00446BF
:1016D0000D460026B1460427DFF8CC80A6884FF6D9
:1016E000C0700640684600F0E5FEDDF808802F482F
:1016F000B8FBF0F01FFA80F946EA0906A6802088B8
:101700004FF6FE710840208000262949286888424B
:101710000CD828684000B8FBF0F087B2042F00DA3C
:1017200004273E4309F10100208427E0E8884BF6B6
:10173000FF71884206D1286800EB4000B8FBF0F04A
:1017400087B209E0286800EBC00101EB0010B8FB8C
:10175000F0F087B247F48047C7F30B0008B947F0B1
:10176000010747F4004006434FF4967009FB00F070
:101770004FF47A7190FBF1F0401C2084A6832088FE
:1017800040F00100208026884FF6F5300640A888FA
:101790006989084306432680A8892989084320814E
:1017A00005B0BDE8F083000000127A0040420F004F
:1017B000A08601000146088AC0B2704701827047C6
:1017C00010B5044602492046FFF738FF208B10BDB4
:1017D000020000102DE9F0419848FFF7F9FE984803
:1017E0000078984909780844642801DBBDE8F08155
:1017F00094480078401E9349087091480078192851
:101800006FDA0CE18E48007817286BD2DFE800F021
:101810000C512E5DD8EAE1EA6B7F93AEB7EAEAEAB3
:10182000EAEAEAEAC0C8D000874885490978405CFE
:10183000012804D18449824A127888540FE08248F2
:101840007F490978405C022804D17F497C4A12789C
:10185000885404E000207C49794A127888547A48F8
:1018600077490978405C79490870BCE0764874494A
:101870000978405C012805D101217348704A12782B
:1018800081540FE070486E490978405C022804D109
:101890006D496B4A1278885404E000206A49684A0E
:1018A00012788854684866490978405C684908702D
:1018B00099E00120674908706349614A1278885CA1
:1018C00003F032F9644908608DE001206349087033
:1018D0005D495B4A1278885C03F026F9604908602C
:1018E00081E0A5E07EE05849554A1278885C03F013
:1018F0001BF9804603F06EF806460022594B02F0B1
:10190000F3FB044602F00AFB574908606BE04E49BE
:101910004B4A1278885C03F007F9804603F05AF8C6
:10192000064600224F4B02F0DFFB044602F0F6FAB7
:101930004E49086057E0444841490978405C50B935
:10194000002041493E4A12788854494908700120D4
:101950004849087009E001203B49394A1278885407
:10196000434908700220434908703CE03648344A35
:101970001278815C32480078FEF750FE33E032483E
:101980002F4A1278815C2E480078FEF747FE2AE045
:101990002D482B4A1278815C142002F033FA22E0A1
:1019A0002948274A1278815C152002F02BFA1AE0A8
:1019B0002548234A1278815C162002F023FA12E0AF
:1019C00021481F490978405C10B900202A49086065
:1019D00009E01D481A490978405C10B900202749E0
:1019E000086000E000BF00BF15480078012803D060
:1019F00013480078032805D111480078401C10498D
:101A000008700CE010480E490978415C1C480C4AEB
:101A1000127881540A480078401C09490870094925
:101A20000878411E074A117000287FF4EBAE03E0EE
:101A300002F060FA02F044FA00BFD7E60058004016
:101A4000F2000020F10000206401002002010020CB
:101A5000030100200C010020040100200D010020E2
:101A60000801002000E06F40100100201401002058
:101A700001010020F40000206C0000207000002014
:101A8000C801002000B585B00121880500F0ACFC3C
:101A90001A4801900020ADF808004BF6FF70ADF831
:101AA0000A002020ADF80C004001ADF80E00000146
:101AB000ADF8100001A91248FFF706FE01224FF40D
:101AC000E0610F48FFF7F7FD4FF4C06000F064FCE1
:101AD00021208DF8000001208DF8010000208DF8F4
:101AE000020001208DF80300684600F01DFC012172
:101AF0000348FFF77BFD05B000BD0000A086010094
:101B00000058004008B50121082000F08DFC4FF47A
:101B10004060ADF8000003208DF802001C208DF815
:101B2000030069460148FFF761FA08BD000C014057
:101B300010B5FFF7E7FFFFF7A5FF10BD08B50121BE
:101B4000042000F071FC4FF48050ADF800004820F4
:101B50008DF8030069460248FFF748FA08BD000007
:101B60000008014008B50121082000F05DFC48F2A2
:101B70000C00ADF8000003208DF8020010208DF855
:101B8000030069462148FFF731FA0121102000F0D7
:101B90004BFC4FF4C040ADF8000003208DF802006C
:101BA00010208DF8030069461948FFF71FFA01213C
:101BB000042000F039FC4FF40040ADF80000032091
:101BC0008DF8020010208DF8030069461148FFF7D8
:101BD0000DFA4FF400410D48FFF7E7FA04210B48D6
:101BE000FFF7E3FA4FF480410948FFF7DEFA4FF4BC
:101BF00000510748FFF7D9FA4FF400410548FFF7B5
:101C0000D4FA08210148FFF7D0FA08BD000C0140C2
:101C1000001001400008014010B50446002C7CD1A2
:101C20002021E548FFF7BFFA4FF40051E248FFF7E3
:101C3000BAFA4FF40041E048FFF7B5FA0421DE4854
:101C4000FFF7B1FA4FF48041DC48FFF7ACFA4FF4EC
:101C50000051DA48FFF7A7FA4FF40041D848FFF7E0
:101C6000A2FA0821D448FFF79EFA642001F05EFD35
:101C70002021D148FFF799FA4FF40051CE48FFF7E1
:101C800094FA4FF40041CC48FFF78FFA0421CA4878
:101C9000FFF78BFA4FF48041C848FFF786FA4FF4FC
:101CA0000051C648FFF781FA4FF40041C448FFF7DE
:101CB0007CFA0821C048FFF778FA642001F036FD6D
:101CC0002021BD48FFF76FFA4FF40051BA48FFF7E3
:101CD0006AFA4FF40041B848FFF765FA0421B648A4
:101CE000FFF761FA4FF48041B448FFF75CFA4FF414
:101CF0000051B248FFF757FA4FF40041B048FFF7E0
:101D000052FA0821AC48FFF74EFA642001F00EFDAC
:101D10002021A948FFF749FA00E074E04FF4005190
:101D2000A548FFF742FA4FF40041A348FFF73DFAF8
:101D30000421A148FFF739FA4FF480419F48FFF78B
:101D400034FA4FF400519D48FFF72FFA4FF4004149
:101D50009B48FFF72AFA08219748FFF726FA6420E4
:101D600001F0E4FC20219448FFF71DFA4FF40051E4
:101D70009148FFF718FA4FF400418F48FFF713FA24
:101D800004218D48FFF70FFA4FF480418B48FFF78D
:101D90000AFA4FF400518948FFF705FA4FF4004161
:101DA0008748FFF700FA08218348FFF7FCF9642011
:101DB00001F0BCFC20218048FFF7F7F94FF40051F7
:101DC0007D48FFF7F2F94FF400417B48FFF7EDF94A
:101DD00004217948FFF7E9F94FF480417748FFF78C
:101DE000E4F94FF400517548FFF7DFF94FF4004173
:101DF0007348FFF7DAF908216F48FFF7D6F9642036
:101E000001F094FCD7E010216B48FFF7CCF94FF4B8
:101E100080516948FFF7C7F94FF400416648FFF762
:101E2000C4F904216448FFF7C0F94FF480416348C6
:101E3000FFF7BBF94FF400516048FFF7B6F94FF4D4
:101E400000415F48FFF7B1F9642001F06FFC1021F9
:101E50005948FFF7AAF94FF480515748FFF7A5F901
:101E60004FF400415448FFF7A0F904215248FFF70E
:101E70009CF94FF480415148FFF797F94FF4005116
:101E80004E48FFF792F94FF400414D48FFF78DF9A6
:101E9000642001F04BFC10214748FFF784F94FF410
:101EA00080514548FFF77FF94FF400414248FFF762
:101EB0007CF904214048FFF778F94FF480413F480E
:101EC000FFF773F94FF400513C48FFF76EF94FF4F8
:101ED00000413B48FFF769F9642001F027FC10211D
:101EE0003548FFF762F94FF480513348FFF75DF949
:101EF0004FF400413048FFF758F904212E48FFF70E
:101F000054F94FF480412D48FFF74FF94FF4005139
:101F10002A48FFF74AF94FF400412948FFF745F9ED
:101F2000642001F003FC10212348FFF73CF94FF433
:101F300080512148FFF737F94FF400411E48FFF761
:101F400034F904211C48FFF730F94FF480411B4855
:101F5000FFF72BF94FF400511848FFF726F94FF41B
:101F600000411748FFF721F9642001F0DFFB102141
:101F70001148FFF71AF94FF480510F48FFF715F990
:101F80004FF400410C48FFF710F904210A48FFF70D
:101F90000CF94FF480410948FFF707F94FF400515D
:101FA0000648FFF702F94FF400410548FFF7FDF836
:101FB000642001F0BBFB10BD000C0140001001408B
:101FC0000008014000BFFEE770B586B00024002580
:101FD00000BF00BF18E0C24830F8140003A921F880
:101FE0001400BF4830F81400011205F11E00BD4A6C
:101FF0001154BB4830F81400C1B205F11F00115450
:10200000601CC4B2A81CC5B2062CE4DBB44800882E
:10201000B549096888420BD84FF40041B348FFF72F
:10202000C2F8B048407F40F00100AE4948770AE06E
:102030004FF40041AD48FFF7B8F8AA48407F00F0E0
:10204000FE00A8494877A6484088A74949688842C1
:102050000AD80421A548FFF7A6F8A248407F40F01F
:102060000200A049487709E00421A048FFF79DF845
:102070009C48407F00F0FD009A4948779848808846
:102080009949896888420BD84FF480419848FFF7F6
:102090008AF89448407F40F00400924948770AE06B
:1020A0004FF480419248FFF780F88E48407F00F05F
:1020B000FB008C4948778A48C0888B49C9688842A8
:1020C0000BD84FF400518A48FFF76DF88548407FE0
:1020D00040F00800834948770AE04FF400518448F3
:1020E000FFF763F87F48407F00F0F7007D494877AD
:1020F0007B4800897C49096988420BD84FF400412C
:102100007C48FFF750F87748407F40F01000754951
:1021100048770AE04FF400417648FFF746F87148E7
:10212000407F00F0EF006F4948776D4840896E4965
:10213000496988420AD808216C48FFF734F8694891
:10214000407F40F020006749487709E00821674850
:10215000FFF72BF86348407F00F0DF0061494877C4
:102160006548007800286AD164480078012813D1B6
:102170000020634908806348006802F0B9FC064605
:102180006148006802F0B4FCC0EBC00006EB8000C0
:102190005B49091D08801BE058480078022812D1CD
:1021A0005848006802F0A4FC06465748006802F050
:1021B0009FFCC0EBC00006EB800051490880002066
:1021C000091D088004E000204D490880091D088091
:1021D0004E480078012813D14D48006802F088FC71
:1021E00006464C48006802F083FCC0EBC00006EBDA
:1021F00080004349083108800020091D08801EE046
:1022000042480078022814D100203D490831088056
:102210003F48006802F06CFC06463E48006802F049
:1022200067FCC0EBC00006EB800035490C3108802C
:1022300005E00020324908310880091D08804FF46C
:1022400080512C48FEF7A6FF58BB00200190029059
:102250000026642001F06AFA2F4800780A281AD173
:1022600000240BE003A931F81400C11700EB117131
:10227000C1F3071101AA1155601CC4B2062CF1DB91
:10228000062201A9002001F0E5F900F02FFA002054
:10229000FFF7C2FC04E020480078401C1E4908708B
:1022A00002E000201C4908701C480078012808D171
:1022B00000201A49087000F0C1FC0020184908608D
:1022C0000BE016480078022807D100201349087057
:1022D00000F0CFFC00201249086006B070BD00007D
:1022E0002C020020C80100204C010020000C0140FD
:1022F00000100140000801400101002002010020FF
:10230000342C0140100100200401002003010020B2
:10231000140100200801002025010020F400002005
:10232000740000207047000070B5002100230F22C8
:10233000C47804B3154C246804F4E064C4F5E06484
:10234000210AC1F10403CA40447804FA03F18478F5
:102350001440214309010E4C0678A155047804F07D
:102360001F050124AC4005786D11AD0005F1E02595
:10237000C5F8004109E0047804F01F050124AC40D1
:10238000044D0678761145F8264070BD0CED00E04E
:1023900000E400E080E100E002490143024A1160EC
:1023A000704700000000FA050CED00E070470000E7
:1023B00001460020034A506820F440400843506022
:1023C000704700000010024029B1064A52690243DA
:1023D000044B5A6104E0034A52698243014B5A613B
:1023E000704700000010024029B1064AD26902433A
:1023F000044BDA6104E0034AD2698243014BDA619B
:10240000704700000010024029B1064A12690243D9
:10241000044B1A6104E0034A12698243014B1A61BA
:10242000704700000010024029B1064A9269024339
:10243000044B9A6104E0034A92698243014B9A611A
:10244000704700000010024029B1064AD2680243DA
:10245000044BDA6004E0034AD2688243014BDA603D
:1024600070470000001002400F48006840F0010073
:102470000D490860084640680C4908400A49486010
:10248000084600680A49084007490860084600688D
:1024900020F4802008600846406820F4FE00486070
:1024A0004FF41F0088607047001002400000FFF8E2
:1024B000FFFFF6FE30B500210022002400232D4D41
:1024C0006D6805F00C0121B1042905D0082923D13C
:1024D00005E0294D056022E0274D05601FE0254DF0
:1024E0006D6805F47012234D6D6805F48034022583
:1024F00005EB92421CB9214D554305600BE01D4D83
:102500006D6805F400351DB11C4D5543056002E0B2
:10251000194D5543056002E0174D056000BF00BF2F
:10252000144D6D6805F0F0010909154D6B5C0568E7
:10253000DD4045600F4D6D6805F4E061090A104DFE
:102540006B5C4568DD4085600A4D6D6805F460513F
:10255000C90A0B4D6B5C4568DD40C560054D6D6873
:1025600005F44041890B074D6B5CC568B5FBF3F57D
:10257000056130BD0010024000127A0000093D00E4
:10258000360100204601002010B50146002200233C
:1025900000204A11012A02D1094C236806E0022AD0
:1025A00002D1074C236A01E0054C636A01F01F0267
:1025B000012494401C400CB1012000E0002010BD1B
:1025C000001002400248406800F00C007047000014
:1025D0000010024001460020034A506820F0F0003D
:1025E0000843506070470000001002400149086035
:1025F000704700000000424201460020034A506834
:1026000020F4E06008435060704700000010024072
:1026100001460020034A506820F4605040EAC1009F
:102620005060704700100240014908667047000082
:102630000000424202460020044B586820F47C10FF
:1026400042EA01031843014B5860704700100240F2
:1026500001460020034A506820F003000843506000
:10266000704700000010024008B501210820FFF764
:10267000DBFE47F23020ADF8000003208DF80200A9
:1026800014208DF8030069460F48FEF7AFFC1021B7
:102690000D48FEF78AFD20210B48FEF786FD4FF41A
:1026A00080510948FEF781FD4FF400510648FEF7BE
:1026B0007CFD4FF480410448FEF777FD4FF4007134
:1026C0000148FEF772FD08BD000C014010B50B4635
:1026D0000021054C204403E004885C54801C491C04
:1026E0009142F9D310BD000000FF000810B500248E
:1026F000062216490020FFF7E9FF00BF1EE013483D
:10270000005DFF2802D01148005D60B940F69800D6
:102710000F4941F824005D200C490855062200208D
:1027200000F098FF08E00948005D4FF42F7101EBBD
:102730000010074941F82400601CC4B2062CDEDBFF
:1027400001F0D8FB01F0BCFB10BD00001D01002012
:102750004C01002070B50546022D04D0032D0CD08D
:10276000042D1AD112E04FF0804000F08BFC04469B
:1027700000204FF08041888411E00A4800F082FC7C
:102780000446002007492431088008E006480088F4
:1027900004B200200449088001E0002400BF00BF0B
:1027A000204670BD000400402408004010B51348C6
:1027B0000078642821DA1148007870B91048FEF7D3
:1027C000F9FF10490870084600780F4908700B4857
:1027D0000078401C094908700FE00948FEF7EAFF3D
:1027E00009490A780978491C074B19700749885428
:1027F00002480078401C0149087010BDF10000201B
:1028000000580040F2000020F30000206401002086
:102810007047000010B508480078084A1278104444
:10282000074A115C0748FEF7C9FF04480078401CBE
:102830000249087010BD0000F2000020F0000020E6
:10284000C80100200058004010B500F001F810BD8C
:102850000CB50020019000903348006840F48030AF
:102860003149086000BF3048006800F40030009033
:102870000198401C0190009818B90198B0F5A06F1C
:10288000F1D12948006800F4003010B10120009017
:1028900001E0002000900098012843D123480068FF
:1028A00040F01000214908600846006820F003004D
:1028B00008600846006840F0020008601A48406856
:1028C000194948600846406848600846406840F436
:1028D000806048600846406820F47C1048600846E4
:1028E000406840F4E81048600846006840F0807096
:1028F000086000BF0C48006800F000700028F9D0A4
:102900000948406820F003000749486008464068CD
:1029100040F00200486000BF0348406800F00C002F
:102920000828F9D10CBD0000001002400020024030
:1029300000B50246002A09DA104601F05BFA0246A9
:10294000002007490880091D0A8008E0104601F0B0
:1029500051FA024602490A800020091D088000BD84
:10296000342C014000B50246002A09DA104601F075
:1029700041FA0246002007490880091D0A8008E044
:10298000104601F037FA024602490A800020091D6C
:10299000088000BD3C2C01407047000010B5134872
:1029A000006840F00100114908600846406810497D
:1029B00008400E494860084600680E4908400B4927
:1029C00008600846006820F48020086008464068D7
:1029D00020F4FE0048604FF41F008860FFF734FFCA
:1029E0004FF000600449086010BD00000010024074
:1029F0000000FFF8FFFFF6FE08ED00E0F0B50C4622
:102A0000154600220021068C4FF6FE773E400684D4
:102A1000028B018C4FF60C7632407E1C06EA0316C0
:102A20002E433243104EB0420ED0104EB0420BD067
:102A3000B0F1804F08D00E4EB04205D00D4EB042DE
:102A400002D00D4EB04206D14FF6FD76314044F033
:102A50000106314305E04FF6F576314044F00106BA
:102A6000314302830184F0BD002C01400034014059
:102A70000004004000080040000C0040F0B50C4687
:102A80001546002200210026078C4FF6EF7C07EA4E
:102A90000C070784028B018C4FF6FF7707EA0416B8
:102AA00040F6FF473A404FF6FF7707EA03373A43CD
:102AB0004FF6FF7707EA05273A43114FB8420ED089
:102AC000104FB8420BD0B0F1804F08D00E4FB84233
:102AD00005D00E4FB84202D00D4FB84206D14FF686
:102AE000DF77394046F01007394305E04FF65F774E
:102AF000394044F01007394302830184F0BD0000DF
:102B0000002C014000340140000400400008004057
:102B1000000C0040F0B50C461546002200210026AE
:102B2000078C4FF6FF6C07EA0C070784828B018C39
:102B30004FF6FF7707EA04264FF60C773A404FF638
:102B4000FF7707EA03172F433A43114FB8420ED0DD
:102B5000104FB8420BD0B0F1804F08D00E4FB842A2
:102B600005D00E4FB84202D00D4FB84206D14FF6F5
:102B7000FF57394046F48077394305E04FF2FF575D
:102B8000394044F48077394382830184F0BD0000EA
:102B9000002C0140003401400004004000080040C7
:102BA000000C0040F0B50C4615460022002100261E
:102BB000078C4EF6FF7C07EA0C070784828B018C9A
:102BC0004FF6FF7707EA043640F6FF473A404FF6E4
:102BD000FF7707EA05273A434FF6FF7707EA0337FF
:102BE0003A43114FB8420ED0104FB8420BD0B0F15B
:102BF000804F08D00E4FB84205D00E4FB84202D0D9
:102C00000D4FB84206D14DF6FF77394046F4805754
:102C1000394305E047F6FF57394044F480573943BC
:102C200082830184F0BD0000002C0140003401408B
:102C30000004004000080040000C004010B500F007
:102C400003F8FEF76DFB10BD08B54FF4E060FFF729
:102C5000A3FB19208DF8000000208DF8010003204F
:102C60008DF8020001208DF803006846FFF75CFB39
:102C700008BD10B5FFF7E8FFFEF7DAFA10BD000057
:102C800010B501211C4800F0BEF91C480068401C2A
:102C90001A4908601A48007898B90846006806285A
:102CA00028D10220FFF756FD164908600320FFF7E0
:102CB00051FD15490860002010490860FDF77AFDB4
:102CC00018E00F480078012814D10C48006840F241
:102CD000C62188420ED10220FFF73CFD0949086059
:102CE0000320FFF737FD084908600020034908600A
:102CF000FDF760FD10BD0000002C014074000020B5
:102D000001010020300000203400002000B589B00F
:102D100001210846FFF768FB01210420FFF784FB2F
:102D20000320ADF8140004208DF8170003208DF85F
:102D3000160005A92648FEF759F942F20F70ADF8C2
:102D40000C000020ADF80800ADF80E00ADF80A0048
:102D500002A94FF0804000F093FB00231A460321A4
:102D60004FF0804000F06DF90020ADF81800ADF88C
:102D70001A000120ADF81C000020ADF81E00012053
:102D8000ADF8200006A9800700F090F91C208DF80E
:102D9000040001208DF805008DF806008DF807006D
:102DA00001A8FFF7C1FA0121880700F029F90122E3
:102DB0001146900700F0D0F900214FF0804000F05C
:102DC00030FB0121880700F021F909B000BD0000A7
:102DD0000008014010B51548007800F0800018BBCD
:102DE0000121880700F051F9D0B11048007800F0B7
:102DF0004000A8B10D48007800F03F003F280AD1FC
:102E00000A48007840F08000084908704FF6FF70CB
:102E10000749088004E005480078401C0349087011
:102E20000121880700F0EFF810BD00002601002006
:102E30002801002000B589B001210220FFF7D4FA53
:102E400001210420FFF7F0FAC020ADF8140004209F
:102E50008DF8170003208DF8160005A92448FEF709
:102E6000C5F842F20F70ADF80C000020ADF8080074
:102E7000ADF80E00ADF80A0002A91E4800F000FBF4
:102E800000231A4603211B4800F0DBF80020ADF8B0
:102E90001800ADF81A000120ADF81C000020ADF8B4
:102EA0001E000120ADF8200006A9124800F0FEF82F
:102EB0001D208DF8040001208DF805008DF8060016
:102EC0008DF8070001A8FFF72FFA0121094800F04B
:102ED00097F801221146074800F03EF90021054805
:102EE00000F09FFA0121034800F090F809B000BDFE
:102EF000000801400004004010B51548007800F0BB
:102F0000800018BB0121134800F0BFF8D0B1104871
:102F1000007800F04000A8B10D48007800F03F00B4
:102F20003F280AD10A48007840F08000084908701C
:102F30004FF6FF700849088004E005480078401CFF
:102F4000034908700121034800F05DF810BD00003E
:102F50002A010020000400402C01002000B587B0A9
:102F600001210420FFF740FA44F61F60ADF8140079
:102F70003F20ADF810000020ADF81600ADF81200AB
:102F800004A9184800F07CFA7020ADF80000012078
:102F9000ADF802000020ADF806000220ADF80800F0
:102FA0006946104800F0E2F808210E4800F02AF9BE
:102FB00069460C4800F030F908210A4800F07EF913
:102FC0006946084800F088F90821064800F0D4F95D
:102FD0000121044800F008F80121024800F016F829
:102FE00007B000BD0008004021B1028842F0800215
:102FF000028004E002884FF67F731A400280704717
:10300000CA4302827047CA430282704721B10288D4
:1030100042F00102028004E002884FF6FE731A407B
:103020000280704731B1B0F8442042F40042A0F869
:10303000442005E0B0F84420C2F30E02A0F844207A
:103040007047F0B50C4615461E46002100220023AD
:103050000189028B038C4FF6F877394021434FF6F4
:10306000FC473A4040F201173A434FF6DD773B40C8
:103070004FF6FF7707EA06172F433B430181028390
:103080000384F0BD0146888C704730B502460020AD
:1030900000230024158A05EA0103958905EA010445
:1030A00013B10CB1012000E0002030BD70B5054621
:1030B0000C46244885420ED0234885420BD0B5F1FA
:1030C000804F08D02148854205D02148854202D052
:1030D0002048854200D100E000BF208850B92389F4
:1030E000A28861882846FFF789FCE188284600F01D
:1030F0009AF925E0208804280AD12389A2886188CA
:103100002846FFF7BBFCE188284600F095F917E058
:10311000208808280AD12389A28861882846FFF7D9
:10312000F9FCE188284600F094F909E02389A28897
:1031300061882846FFF736FDE188284600F092F9BD
:1031400070BD0000002C014000340140000400402C
:1031500000080040000C00401AB183890B438381B2
:1031600002E083898B4383817047000070B500249F
:1031700000220023058C4FF6FE7635400584028C34
:103180008388048B4FF68F752C40B51E2C400D881C
:103190002C43751E2A400D892A434D882A43144D1D
:1031A000A8420BD0134DA84208D0134DA84205D019
:1031B000124DA84202D0124DA84213D14FF6F77516
:1031C0002A404D892A434FF6FB752A408D882A43B1
:1031D0004FF6FF652B404FF6FF552B408D892B4353
:1031E000CD892B4383800483CD888586028470BD7E
:1031F000002C0140003401400040014000440140E7
:10320000004801400A460021018B4FF6F773194030
:10321000114301837047000070B500240022002391
:10322000058C4FF6EF7635400584028C8388048B3D
:1032300048F6FF752C404FF6FF452C400D884FF6A1
:10324000FF7606EA05252C434FF6DF752A400D89E7
:1032500006EA05152A434D8806EA05152A43154D49
:10326000A84202D0144DA8421DD14FF67F752A40C6
:103270004D894FF6FF7606EA05152A434FF6BF75CE
:103280002A408D8806EA05152A434FF6FF352B4064
:103290004FF2FF752B408D8906EA85052B43CD89BA
:1032A00006EA85052B4383800483CD880587028445
:1032B00070BD0000002C0140003401400A4600218E
:1032C000018B4FF2FF7319404FF6FF7303EA02239D
:1032D000194301837047000070B5002400220023C9
:1032E000058C4FF6FF6635400584028C8388848BFD
:1032F0004FF68F752C404FF6FC752C400D882C43F3
:103300004FF6FF552A400D894FF6FF7606EA052550
:103310002A434D8806EA05252A43154DA84202D0C6
:10332000144DA8421DD14FF2FF752A404D894FF62A
:10333000FF7606EA05252A434FF6FF352A408D8899
:1033400006EA05252A434EF6FF752B404DF6FF751C
:103350002B408D8906EA05152B43CD8906EA051514
:103360002B4383808483CD888587028470BD0000D1
:10337000002C0140003401400A460021818B4FF6A9
:10338000F7731940114381837047000070B5002224
:1033900000230024058C4EF6FF7635400584038C0F
:1033A0008488828B48F6FF752A404FF6FF452A40F5
:1033B0000D884FF6FF7606EA05252A434DF6FF7580
:1033C0002B400D8906EA05352B434D8806EA053565
:1033D0002B430B4DA84202D00A4DA84208D14BF610
:1033E000FF752C408D894FF6FF7606EA85152C4334
:1033F00084808283CD88A0F84050038470BD000093
:10340000002C0140003401400A460021818B4FF21C
:10341000FF7319404FF6FF7303EA022319438183B8
:10342000704781847047028B4FF6F3731A40028312
:10343000028B0A4302837047028B4FF2FF331A401C
:103440000283028B4FF6FF7303EA01231A430283C0
:103450007047828B4FF6F3731A408283828B0A4344
:1034600082837047828B4FF2FF331A408283828BB4
:103470004FF6FF7303EA01231A438283704700006B
:10348000002202881D4B98420ED01D4B98420BD053
:10349000B0F1804F08D01B4B984205D01A4B984290
:1034A00002D01A4B984204D14FF68F731A404B88C2
:1034B0001A43174B984207D0164B984204D04FF648
:1034C000FF431A40CB881A4302808B8883850B8880
:1034D00003850A4B98420BD0094B984208D00E4BFB
:1034E000984205D00D4B984202D00D4B984201D125
:1034F0000B7A03860123838270470000002C014071
:10350000003401400004004000080040000C00406E
:103510000010004000140040004001400044014001
:103520000048014010B540F225511D4800F05DF8FB
:1035300010B31B4800F083F8C4B21A48008800F4A6
:103540000040C8B91748008800F4804060B10A2CD8
:1035500003D000201349088020E01248008840F47E
:1035600000401049088019E00D2C06D10D48008854
:1035700040F480400B49088010E00A480088C0F3FE
:103580000D0009490C5407480088401C0549088073
:1035900008460088C72801DD0020088010BD000013
:1035A00000380140340100203802002010B52021ED
:1035B000064800F00DF8012807D1044800F03FF854
:1035C00004462146014800F03FF810BD0044004089
:1035D00002460020B1F5007F00D100BF13880B40E8
:1035E0000BB1012000E00020704770B502460024B6
:1035F00000230025002040F66A16B14200D100BF2A
:10360000C1F3421501F01F03012606FA03F3012D51
:1036100002D19689334006E0022D02D1168A33404A
:1036200001E0968A33400C12012606FA04F416884B
:10363000344013B10CB1012000E0002070BD014600
:103640008888C0F308007047C1F308028280704781
:1036500000BFFEE72DE9F04105460E46174600245F
:10366000A046FDF7CFFB3420FDF742FB01201249B5
:1036700008701248FDF742FB0F49087008460078B1
:10368000042811D10120087000BF0BE016F8048057
:103690000A49294401EB44004146FDF787FB0649EE
:1036A0000870641CBC42F1D3012003490870FDF787
:1036B00065FBBDE8F08100002301002000FF000849
:1036C00040F6BA600E4909684242914202DA41422C
:1036D0000B4A11600A490968814201DD0849086006
:1036E000084909684242914202DA4142054A1160A2
:1036F00004490968814201DD024908607047000001
:103700004000002044000020014600BF7047000038
:1037100010B501210348FCF766FF01210248FDF7BF
:1037200015FA10BD0024014008000240002107E006
:1037300042F6E06100BF0A1EA1F1010399B2FAD17D
:10374000021EA0F1010398B2F2D1704707B596B0FE
:10375000179801F03FF90022FE4BCDE9040101F07A
:1037600019F802D20020014660E0179801F032F902
:103770000022F94BCDE9040100F0D2FE02D2002074
:10378000014653E0179801F025F900221346CDE9D0
:10379000040100F0FFFF1ED8179801F01BF900226A
:1037A0004FF08043CDE9040100F0F4FF02D800207F
:1037B000EA493BE0179801F00DF90022E84BCDE90A
:1037C000040100F0E7FF03D80020E34949422DE05F
:1037D0000020E4492AE0179801F0FCF80022E24BAF
:1037E000CDE9040100F0D6FF02D80020DF491DE03A
:1037F000179801F0EFF800224FF04043CDE90401A3
:1038000000F0C8FF03D80020D24949420EE01798C3
:1038100001F0E0F80022D04BCDE9040100F0BAFF3E
:1038200002D80020D24901E000200146CDE906017E
:1038300000F074FB1490179801F05AF90E900E984E
:103840000C90149801F0C6F80022C64BCDE9020195
:1038500000F0D6FF0022BF4BCDE9040100F090FB41
:10386000CDE9060100F0D4FD0E90149801F0B2F8F5
:103870000022BC4BCDE9020100F082FB0022B54BD7
:10388000CDE9040100F07CFBCDE9060100F0C0FDAC
:103890000C90149801F09EF800221346CDE9040123
:1038A00000F07AFD02D10020014613E0179801F0E4
:1038B00091F8CDE90401149801F08CF80022A94B8D
:1038C000CDE9000100F05CFBCDE90201DDE9042354
:1038D00000F096FFCDE9060100F020FB129014984D
:1038E00001F078F800221346CDE9040100F054FD00
:1038F00002D10020014613E0149801F06BF8002279
:10390000984BCDE9000100F07BFFCDE90401179849
:1039100001F060F8CDE90201DDE9042300F070FF59
:10392000CDE9060100F0FAFA1090189801F052F86B
:103930000022884BCDE9040100F02CFF02D20020C8
:10394000014660E0189801F045F80022824BCDE96D
:10395000040100F0E5FD02D20020014653E0189872
:1039600001F038F800221346CDE9040100F012FFFF
:103970001ED8189801F02EF800224FF08043CDE9B0
:10398000040100F007FF02D8002074493BE01898BA
:1039900001F020F80022724BCDE9040100F0FAFE9C
:1039A00003D800206C4949422DE000206D492AE0EF
:1039B000189801F00FF800226B4BCDE9040100F0DC
:1039C000E9FE02D8002069491DE0189801F002F8CC
:1039D00000224FF04043CDE9040100F0DBFE03D8A4
:1039E00000205C4949420EE0189800F0F3FF0022E5
:1039F000594BCDE9040100F0CDFE02D800205C490E
:103A000001E000200146CDE9060100F087FA13909D
:103A1000139800F0DFFF0022524BCDE9020100F0C5
:103A2000EFFE00224B4BCDE9040100F0A9FACDE9ED
:103A3000060100F0EDFC0D90139800F0CBFF002282
:103A4000484BCDE9020100F09BFA0022414BCDE941
:103A5000040100F095FACDE9060100F0D9FC0B90C5
:103A6000139800F0B7FF00221346CDE9040100F0DF
:103A700093FC02D10020014613E0189800F0AAFF41
:103A8000CDE90401139800F0A5FF0022354BCDE9E4
:103A9000000100F075FACDE90201DDE9042300F030
:103AA000AFFECDE9060100F039FA1190139800F04D
:103AB00091FF00221346CDE9040100F06DFC02D114
:103AC0000020014613E0139800F084FF0022254BEC
:103AD000CDE9000100F094FECDE90401189800F052
:103AE00079FFCDE90201DDE9042300F089FECDE98B
:103AF000060100F013FA0F90DDE90F1001F028F82D
:103B000005900B98C0EBC0001A4901EB80010C989E
:103B100051F8200001460490059801F019F807902B
:103B2000DDE9100101F014F803900D98C0EBC0001E
:103B3000104901EB80010C9851F8200001460290D9
:103B4000039801F005F805900F99129801F000F81C
:103B5000019011E000000840000008C0000004408F
:103B60000000F03F0000E03F0000F0BF0000E0BFB9
:103B7000000004C0E84D00080B98C0EBC000754978
:103B800001EB80010E9851F8200001460090019849
:103B900000F0DEFF0390DDE9111000F0D9FF019085
:103BA0000D98C0EBC0006B4901EB80010E9851F8F5
:103BB000200001460090019800F0CAFF029003998E
:103BC00000F034FF0490059900F030FF069007994B
:103BD00000F02CFF0890DDE90F1000F0B9FF059010
:103BE0000B98C0EBC0005C4901EB80010C9851F8C8
:103BF000200001460490059800F0AAFF0790DDE937
:103C0000100100F0A5FF03900D98C0EBC0005249D1
:103C100001EB80010C9851F82000014602900398B6
:103C200000F096FF05900F99129800F091FF019017
:103C30000B98C0EBC000484901EB80010E9851F889
:103C4000200001460090019800F082FF0390DDE91A
:103C5000111000F07DFF01900D98C0EBC0003E49AF
:103C600001EB80010E9851F8200001460090019868
:103C700000F06EFF0290039900F0D8FE04900599C1
:103C800000F0D4FE0690079900F0D0FE0990DDE91F
:103C90000F1000F05DFF05900B98C0EBC0002F499E
:103CA00001EB80010C9851F8200001460490059822
:103CB00000F04EFF0790DDE9100100F049FF03908E
:103CC0000D98C0EBC000254901EB80010C9851F81C
:103CD000200001460290039800F03AFF05900F99EA
:103CE000129800F035FF01900B98C0EBC0001B4903
:103CF00001EB80010E9851F82000014600900198D8
:103D000000F026FF0390DDE9111000F021FF019083
:103D10000D98C0EBC000114901EB80010E9851F8DD
:103D2000200001460090019800F012FF02900399D4
:103D300000F07CFE0490059900F078FE069007994B
:103D400000F074FE0A9008A90EC916980EC019B0AA
:103D500000BD0000E84D0008AC4E0008704F0008A0
:103D600010B504460B2C0FD14FF480410E48FDF7DF
:103D70001CFA4FF400510C48FDF717FA4FF480512C
:103D80000948FDF712FA0EE00C2C0CD14FF400712B
:103D90000548FDF70AFA20210348FDF706FA10212D
:103DA0000148FDF702FA10BD000C01404FF460100D
:103DB000FDF702FA01210920FEF736FB01210C482C
:103DC000FDF7A0F9FCF71FFC00F074F8FDF7B0FE5A
:103DD000FCF720FBFFF79CFCFEF730FFFEF786FCAC
:103DE000FFF728F8FEF792FF01E0FEF7EDF8FCE799
:103DF000000230000146002901DA484200E008468E
:103E0000704700002DE9F84F82460C464FF4FA79CE
:103E1000002000908346B42C00DBB424002C00DC8E
:103E20000024204600F068FB07464FF03332144B65
:103E300000F0B2FB054600F071F80090009800F029
:103E400057FE8346D944BAF1140F06D0BAF1150FC4
:103E500007D0BAF1160F0ED108E00A49A1F8009078
:103E60000AE00849091DA1F8009005E0054908315C
:103E7000A1F8009000BF00BF00BFBDE8F88F0000B0
:103E8000333326403408004008B501210820FEF7EE
:103E9000CBFA4FF4E070ADF8000003208DF802007B
:103EA00018208DF8030069460148FDF79FF808BD0A
:103EB000000C014010B5FFF7E7FFFFF74FF810BD0A
:103EC00010B50020084A116800BF07E011F8013B57
:103ED00000F13302054CA354421CD0B2044A1278BC
:103EE0009042F3DB10BD000018010020C801002043
:103EF0001C01002010B506480068FCF786F905494A
:103F0000087008460078044981F8320010BD0000AE
:103F1000180100201C010020C801002021F00042EF
:103F2000A2F16052B2F5801F01F0004328BFD2F128
:103F30007F6C0BD95FEA001C43EAC20242EB50706F
:103F400018BF704728BF20F001007047B2F5801FEE
:103F5000BCBF184670474FEA410C1CF5001F02D247
:103F6000084600F0BCBE70B500F0C0FB0000008940
:103F7000FFF7F6BF4FF00040A0F58000704700004B
:103F800010B591EA030F48BF83F0004300F140846D
:103F9000841A71EB030C05D2121943EB0C03001BBE
:103FA00061EB0C01DFF824E14FEA1154A4EB135C40
:103FB0001EEA430F18BF9EEA445F73D023EA0E0344
:103FC000DCF1200E21EA045143F4801332D322FAAB
:103FD0000CFE10EB0E0023FA0CFE41EB0E01CCF1AF
:103FE000200E03FA0EFE10EB0E0051F10001B1F5A8
:103FF000801FCCF1200E32D201EB045112FA0EF2E6
:10400000BDE8104058BF7047401C38BF5FEA42020D
:1040100018BF7047002814BF20F0010041F10001D3
:104020004FEA410313F5001F38BF7047A1F1C041AB
:1040300000F0AABB012A43EB0302ACF1200CDCF137
:104040001F0E32BF4FF0000E23FA0CF310EB0300EB
:1040500041EB0451B4EB115FD0D0A1EB045101F559
:10406000801149085FEA300001EB04510ED350F192
:10407000000038BF12FA0EFE08D1BDE81040C9E7B3
:10408000401C38BF5FEA4202CAD1C3E7BDE8104016
:104090004FEA410313F5001F38BF7047A1F1C0413B
:1040A00000F072BB9EEA445F08D011EA5E0FBDE8E3
:1040B000104004BF01F0004100207047BDE81040EF
:1040C00070B500F013FB00BF64FBBE3E0000E0FFD4
:1040D000491058BFC1F140415B1058BFC3F1404384
:1040E0008B42EFF3008070472DE9C04130B4DFF818
:1040F000A0C23CEA111418BF3CEA131400F0EC8093
:1041000081EA03051CEA111444EAD57418BF1CEABD
:10411000131500F0C780A4EB05044FF0004545EAF5
:10412000C12145EAC32341EA505143EA525304F105
:104130007F74994204F500344FEAC0204FEAC2224E
:1041400008BF904200F09C804FEA13650FF24016C2
:10415000765D4FEA134506FB05F7C7F1807706FB4E
:1041600007F74FEAD737A7FB03687642C8F58038D0
:10417000A7FB06CE38BFA8F1010807FB08E64FF001
:10418000000EA6FB028CE6FB03CEDCF1000CCEF1A8
:10419000004E38BFAEF1010EA6FB0C584FF00007E1
:1041A0004FF00005E6FB0E87A1FB08C6A0FB07CE7B
:1041B00016EB0E0645F10005E1FB076515F1E04E33
:1041C0007EBFA4F580345FEA46066D4116F1800794
:1041D00045F100054FEA17274FEA066647EA0567EB
:1041E000A6F1DE46B6F1805F4FEA15251FD93846A5
:1041F00024F0010C05EBC471BCF1FE6F01EB0C1156
:1042000002D8F0BCBDE8008124425CBF01F5801EED
:104210009EEAC47F02D4F0BCBDE80081244238D4B9
:10422000F0BCA1F1C041BDE8004100F0ADBA4FEAD9
:10423000D22242EA43524FEAD323A7FB02864FEA37
:10424000D02040EA415007FB03661EEA0E0F4FEAFA
:10425000D12105FB026658BFA6EB0056B6EB00560F
:104260004FEA520E4EEAC37E18EB0E0E56EB530E7B
:10427000BDD518EB02085E417F1C55F10005B6E77D
:104280004FF480154FF000074FF000064FF0000884
:10429000ADE7F0BC4FF0000001F1C04101F000417A
:1042A000BDE8008111EA0C1F0CEA131500D00CE0E8
:1042B00013EA0C1F00F025804FF00000F0BC81EAEB
:1042C000030101F00041BDE80081F0BCBDE8004100
:1042D00081EA030100F058BAF0BCBDE8004170B5B6
:1042E00000F004FA097EFC3E00F007B881EA030101
:1042F0004FF0000001F00041704781EA030100F037
:1043000043BAF0BCBDE800414FF0000021497047BE
:10431000FFFDFBF9F7F5F4F2F0EEEDEBE9E8E6E48A
:10432000E3E1E0DEDDDBDAD8D7D5D4D3D1D0CFCD11
:10433000CCCBCAC8C7C6C5C4C2C1C0BFBEBDBCBB4A
:10434000BAB9B8B7B6B5B4B3B2B1B0AFAEADACAB45
:10435000AAA9A8A8A7A6A5A4A3A3A2A1A09F9F9E1F
:104360009D9C9C9B9A9999989797969595949393D1
:10437000929191908F8F8E8E8D8C8C8B8B8A898968
:1043800088888787868585848483838282818180EB
:104390000000FF070000F87F51EA030C17D41CF55A
:1043A000801F58BFBCF5801F00F10680994218BFDE
:1043B000704708BF9042704707D711F5801F58BF5C
:1043C00013F5801F19D499427047894270471CF534
:1043D000801F08D5BCF5801FF7D58B4218BF7047EA
:1043E00008BF824270474FF4001C1CEB410F38BFDE
:1043F0001CEB430F01D28B42704770B500F076F989
:10440000922449004FF000514FF08053FFF760BEF7
:104410004FEA41034FEA5353A3F58063D3F11E03E0
:10442000C8BFD3F1210C0CDD4FF0004242EAC1229B
:1044300042EA505232FA03FC8CEAE17CACEBE170C8
:104440007047102BC4BF0020704703F5787CBCF187
:10445000FF3F04D06FF0004282EA2100704770B540
:1044600000F044F94992248000207047F2E70000F0
:104470004FEA1153A3F58063D3F11E03A8BFD3F114
:10448000200C08DB4FF0004242EAC12252EA5052AF
:1044900032FA03F0704709420BD4102BC4BF00203E
:1044A000704703F5787CBCF1FF3F05D04FF0FF303B
:1044B00070474FF00000704770B500F017F900BF6B
:1044C0004992248000207047F0E710F0004248BF76
:1044D0004042B0FA80F310FA03F10AD0C3F11D0391
:1044E00003F580634FEA415002EB035202EBD12106
:1044F00070474FF000007047B0FA80F310FA03F1F4
:104500000AD0C3F11D0303F580634FEA41504FEA1F
:10451000035202EBD12170474FF0000070470000BA
:1045200051EA030C17D41CF5801F58BFBCF5801F3F
:1045300000F10680994218BF704708BF904270474B
:1045400007D711F5801F58BF13F5801F19D4994262
:104550007047894270471CF5801F08D5BCF5801F45
:10456000F7D58B4218BF704708BF824270474FF49F
:10457000001C1CEB410F38BF1CEB430F01D28B42D8
:10458000704770B500F0B2F8922449004FF0005126
:104590004FF08053FFF79CBDDFF848C170B51CEAAF
:1045A000111E1EBF1CEA13159EEA0C0F95EA0C0F94
:1045B00000F06F8081EA030423EA4C134EEAD47EB4
:1045C00021EA4C1141F4801143F48013AE44A1FB65
:1045D000024CA0FB0365AEF17F7E361955EB0C054E
:1045E000A1FB034C4CF10003A0FB021C16EB0C06D4
:1045F000654153F10003094218BF46F0010613F468
:10460000007F0BD14FEA03314FEA0530340341EA12
:10461000155140EA16506FF003020AE04FEAC32139
:104620004FEAC520F40241EA555140EA56506FF076
:10463000020202EB2E4201EB025585EACE710AD04E
:104640005FEA440C18BF24F0004450F1000041F12F
:10465000000120EAD47040F2FE7C624500D270BDB9
:10466000A84214BF4FF080444FF04044002E08BFD2
:104670000024BEF1806FA8BFA1F1C041BDE8704029
:1046800080F282804FF0000001F1C04101F0004152
:1046900070479EEA0C0F0CEA131518BF95EA0C0F31
:1046A00006D04FF0000081EA030E0EF0004170BD0D
:1046B00000F01CF88900013E00F007B800F009B8CE
:1046C0004FEA430C5FEA5C5C08D081EA030100F02A
:1046D0005BB84FEA410C5FEA5C5CF6D14FF000003A
:1046E000014970470000FF070000F87F0EF1020E3D
:1046F0002EF0030E5EF8046B364205D4012A43EB1C
:10470000030515F5001F12D8012841EB010C1CF51B
:10471000001F0CD80ED14FEAD17C15F5001F0CEB11
:104720004C0C0CF1020C08BF4CEBD37C04E04FF0B6
:10473000080C01E04FEAD37C0CEB4C0526FA05F699
:1047400006F00706B6F1040C06D20EEB860CBDE8A7
:1047500070404CF0010C6047DFE80CF0090B0202DE
:104760004FF000414FF00000A1F5002170BD194647
:104770001046012851EB010418BFD4F5001484BF82
:10478000002001F0004170BD0808A0F500114FEABB
:104790003101704753EA010C17D41CF5801F58BF34
:1047A000BCF5801F00F106808B4218BF704708BF20
:1047B0008242704707D713F5801F58BF11F5801F3D
:1047C00019D48B4270479B4270471CF5801F08D557
:1047D000BCF5801FF7D5994218BF704708BF9042BB
:1047E00070474FF4001C1CEB430F38BF1CEB410F0C
:1047F00001D2994270470FB40CBC03BCFFF7C1BE95
:1048000010B591EA030F48BF83F000433FF5C0ABFA
:10481000841A71EB030C07D212198CF0004C43EB95
:104820000C03001B61EB0C01DFF8A4E14FEA11540B
:10483000A4EB135C1EEA430F18BF9EEA445F00F02E
:10484000B08023EA6E03524221EA0451C3EB6E03A7
:1048500038BF5B1EDCF1200E25D322FA0CFE10EBD4
:104860000E0043FA0CFE41EB0E01CCF1200E03FAD0
:104870000EFE10EB0E0051F10001CCF1200E29D4F8
:1048800012FA0EF201EB0451BDE8104058BF704718
:10489000401C1CBFB2F1004F704700280CBF491CE0
:1048A00020F00100704712EB020E43EB030218BF29
:1048B0004FF0010E4EEA4202ACF1200CDCF11E0E6C
:1048C00054D943FA0CFE10EB0E0051F1FF31CCF13C
:1048D0001E0ED5D50EF1010E12FA0EFE404141EB2F
:1048E000010101EB445C5FEA5C5C10D910EBDE7007
:1048F00001EB045138BFBEF1004FBDE8104018BFB6
:10490000704700280CBF491C20F00100704730D2CE
:104910004FEAD42C11F5001124F400641BD0B1FA35
:1049200081F20B3AA41AA41ED2F12003914030FA6E
:1049300003F31943904001EBCC71002C01EB0451BF
:10494000BDE81040A8BF704701F1C0414FF0000022
:1049500001F000417047B0FA80F310FA03F100D182
:1049600010BDE41A173C4805C90AE4E701EB0451FD
:1049700010BD491001EB0451BDE810404FEA300072
:1049800002E04FF0000170474A0008BF0042F8D033
:10499000B2F5001F28BF704701F000414FF0000042
:1049A00070479EEA445F07D011EA5E0FBDE81040F1
:1049B00004BF002100207047BDE8104070B5FFF72C
:1049C00095FE00BF40DFF63E83F000411046704781
:1049D0000000E0FF43004FEAD30C4FEA3C0C434099
:1049E0001FBF40070CF1605113F0FE4F70471CF0E1
:1049F000006F03D100200CF0004170470CF0004321
:104A000043EA507010B540EACC0000F022F900BF34
:104A1000000000924FEA0001FFF7B6BE4FF00041E0
:104A20004FF00000A1F500217047000090EA010F4F
:104A300048BF81F0004100F16881421A3CBF801AF2
:104A400089184FEAD0524FF07F4C1CEA410FA2EB7D
:104A5000D15318BF9CEA026F00F03B804FF0004C2E
:104A60004CEA00204CEA012121FA03FC10EB0C0C6B
:104A70001ED202F1FF325FEA1C2040EBC25038BF69
:104A800070471CF07F0F4FEA400C18BFBCF17F4FFE
:104A900038BF7047C3F12003994008BF20F00100E0
:104AA000BCF17F4F38BF7047A0F1C04000F017B98C
:104AB0004FEA3C00000A40EBC25028BF1CF0FF0F39
:104AC0004FEA400CE6D018BFBCF17F4F38BF7047AB
:104AD000EAE79CEA026F05D010EA5C0F08BF00F01D
:104AE0000040704710B500F0B4F800BF64FBBE3E54
:104AF00041000B0ED3F19E0208D950F400034FEA97
:104B0000032323FA02F048BF4042704710B500F07B
:104B1000A0F800BF49922480002070476FF0004247
:104B200082EA200070470000B0FA80F310FA03F226
:104B3000C3F19D030AD0D90501EB1220530638BFFB
:104B4000704700F1010008BF20F00100704700002D
:104B50004FF47F0C1CEAD0121EBF1CEAD11392EA5C
:104B60000C0F93EA0C0F00F0478090EA010F48BF4A
:104B700042F480724FF0004C4CEA00204CEA0121D4
:104B800002EB0302A0FB0113A2F50002002918BFEB
:104B900043F001035B0028BF4FEA330342EB22429C
:104BA0005FEA132C4CEBC2502EBFBCEB436FB2F547
:104BB0007C0F70474FEA036CBCF1004F08BF20F038
:104BC0000100B2F57C0F38BF70470BD582F0FF02B1
:104BD00012F5803FC8BF704700F1C040D8BF00F059
:104BE0000040704700F5000C5FEA4C0C48BF70476E
:104BF000B0F1C04000F073B890EA010F0CEAD11395
:104C000048BF42F48072624538BF634504D280EAEF
:104C1000010000F00040704710B500F01AF800BF26
:104C20008900013E00F007B800F009B85FEA410CC6
:104C30005FEA1C6C08D080EA010000F050B85FEA1F
:104C4000400C5FEA1C6CF6D14FF00040A0F58000EC
:104C500070470EF1020E2EF0030E5EF8044B244254
:104C600004D44FEA4102B2F17F4F11D84FEA40031A
:104C7000B3F17F4F0CD80ED14FEAD07CB2F17F4F09
:104C80000CEB4C0C0CF1020C08BF4CEBD17C04E09B
:104C90004FF0080C01E04FEAD17C0CEB4C0324FAF6
:104CA00003F404F00704B4F1040C06D20EEB840CF8
:104CB000BDE810404CF0010C6047DFE80CF007083D
:104CC00002024FF00040A0F5800010BD08464200EF
:104CD00018BFD2F1807288BF00F0004010BDFF21E4
:104CE00041EAD050C005704780F0004090EA010FC3
:104CF0007FF5A3AE81F0004100F007B890EA010F04
:104D000048BF81F000413FF598AE421A04D882F0C6
:104D10000042A0EB020011444FEAD0524FF07F4C0A
:104D20001CEA410FA2EBD15318BF9CEA026F4AD094
:104D30004FF0004C4CEA00204CEA012121FA03FC20
:104D4000B0EB0C0C0FD412F0FE0F36D05FEA4C0023
:104D50001DD5001240EBC25038BF70471CF03F0F0A
:104D600018BF70470BE0A2F101025FEA1C2040EB84
:104D7000C25038BF70471CF07F0F18BF7047C3F197
:104D80002003994014BF401E20F0010070478008A6
:104D90004FEA122308BF7047B0FA80FCA2EB0C0266
:104DA000CCF1280C60FA0CF093EA122F04BF00EB50
:104DB000C25070474FEAC3707047130A5FEADC10B5
:104DC00008BF7047F6E79CEA026F04D010EA5C0F58
:104DD00008BF0020704710B5FFF73BFF40DFF63EED
:104DE00081F000407047000000004040000040405B
:104DF00000000040000000400000803F0000803FB5
:104E00000000000000004040000040400000004062
:104E1000000000400000803F000000000000000093
:104E20000000004000000040000000400000803F03
:104E300000000000000080BF000000C00000004033
:104E40000000803F0000803F00000000000080BFA5
:104E5000000000C0000000C00000803F0000803F54
:104E600000000000000080BF000080BF000000C004
:104E7000000000C00000000000000000000080BF33
:104E8000000000C0000000C0000000C0000040C0E2
:104E900000000000000080BF000080BF000000C0D4
:104EA000000000C0000040C0000040C0000040C042
:104EB000000040C0000040C0000000C0000000C072
:104EC0000000000000000000000040C0000040C0E2
:104ED000000000C0000000C0000080BF0000000013
:104EE00000000000000000C0000000C0000080BF03
:104EF000000080BF000000000000803F0000803FF5
:104F0000000000C0000080BF000080BF0000000063
:104F10000000803F0000803F00000040000080BF94
:104F2000000080BF000000000000803F0000803FC4
:104F300000000040000000400000000000000000F1
:104F40000000803F000000400000004000004040A2
:104F50000000404000000000000000000000803F12
:104F60000000004000004040000040400000404081
:104F70000000803F0000803F0000000000000000B3
:104F8000000000000000404000004040000080BFE2
:104F9000000080BF000080BF000080BF0000000054
:104FA000000080BF00000040000040C0000040C082
:104FB000000000C0000080BF000000000000803F33
:104FC00000000040000040C0000000C0000000C021
:104FD000000080BF000000000000803F0000004093
:104FE000000040C0000000C0000080BF000080BF83
:104FF000000000000000803F0000803F000000C073
:10500000000080BF000080BF000080BF00000000E3
:105010000000803F0000803F0000803F0000000053
:105020000000000000000000000000000000404000
:1050300000004040454E2D56312E34005C50000893
:10504000000000204C01000028010008A8500008C2
:105050004C010020140800008401000831B240CA4D
:105060003F0427A041CDCCCC3D4BC841287A402CF1
:1050700003263804320115CEFFFFFFE43C78B44F1D
:10508000604033333340600114091E20015E133445
:10509000508B0807C30912DA2C0203040420090606
:0850A0000708090204060800DC
:04000005080001C925
:00000001FF
